{
  "contractName": "ProxyCloneFactory",
  "abi": [
    {
      "anonymous": false,
      "inputs": [
        {
          "indexed": true,
          "internalType": "address",
          "name": "previousOwner",
          "type": "address"
        },
        {
          "indexed": true,
          "internalType": "address",
          "name": "newOwner",
          "type": "address"
        }
      ],
      "name": "OwnershipTransferred",
      "type": "event"
    },
    {
      "anonymous": false,
      "inputs": [
        {
          "indexed": false,
          "internalType": "address",
          "name": "proxyClone",
          "type": "address"
        }
      ],
      "name": "ProxyCloneCreated",
      "type": "event"
    },
    {
      "constant": true,
      "inputs": [],
      "name": "isOwner",
      "outputs": [
        {
          "internalType": "bool",
          "name": "",
          "type": "bool"
        }
      ],
      "payable": false,
      "stateMutability": "view",
      "type": "function"
    },
    {
      "constant": true,
      "inputs": [],
      "name": "owner",
      "outputs": [
        {
          "internalType": "address",
          "name": "",
          "type": "address"
        }
      ],
      "payable": false,
      "stateMutability": "view",
      "type": "function"
    },
    {
      "constant": true,
      "inputs": [],
      "name": "proxyImplementationAddress",
      "outputs": [
        {
          "internalType": "address",
          "name": "",
          "type": "address"
        }
      ],
      "payable": false,
      "stateMutability": "view",
      "type": "function"
    },
    {
      "constant": false,
      "inputs": [],
      "name": "renounceOwnership",
      "outputs": [],
      "payable": false,
      "stateMutability": "nonpayable",
      "type": "function"
    },
    {
      "constant": false,
      "inputs": [
        {
          "internalType": "address",
          "name": "newOwner",
          "type": "address"
        }
      ],
      "name": "transferOwnership",
      "outputs": [],
      "payable": false,
      "stateMutability": "nonpayable",
      "type": "function"
    },
    {
      "constant": false,
      "inputs": [
        {
          "internalType": "address",
          "name": "_proxyImplementationAddress",
          "type": "address"
        }
      ],
      "name": "setImplementationAddress",
      "outputs": [],
      "payable": false,
      "stateMutability": "nonpayable",
      "type": "function"
    },
    {
      "constant": false,
      "inputs": [
        {
          "internalType": "address",
          "name": "implementation",
          "type": "address"
        },
        {
          "internalType": "bytes",
          "name": "initCallData",
          "type": "bytes"
        }
      ],
      "name": "deploy",
      "outputs": [],
      "payable": false,
      "stateMutability": "nonpayable",
      "type": "function"
    }
  ],
  "bytecode": "0x608060405260006100146100b760201b60201c565b9050806000806101000a81548173ffffffffffffffffffffffffffffffffffffffff021916908373ffffffffffffffffffffffffffffffffffffffff1602179055508073ffffffffffffffffffffffffffffffffffffffff16600073ffffffffffffffffffffffffffffffffffffffff167f8be0079c531659141344cd1fd0a4f28419497f9722a3daafe3b4186f6b6457e060405160405180910390a3506100bf565b600033905090565b610acd806100ce6000396000f3fe608060405234801561001057600080fd5b506004361061007d5760003560e01c80638f32d59b1161005b5780638f32d59b14610120578063e97fac0514610142578063ecade2f0146101db578063f2fde38b1461021f5761007d565b8063604c066914610082578063715018a6146100cc5780638da5cb5b146100d6575b600080fd5b61008a610263565b604051808273ffffffffffffffffffffffffffffffffffffffff1673ffffffffffffffffffffffffffffffffffffffff16815260200191505060405180910390f35b6100d4610289565b005b6100de6103c2565b604051808273ffffffffffffffffffffffffffffffffffffffff1673ffffffffffffffffffffffffffffffffffffffff16815260200191505060405180910390f35b6101286103eb565b604051808215151515815260200191505060405180910390f35b6101d96004803603604081101561015857600080fd5b81019080803573ffffffffffffffffffffffffffffffffffffffff1690602001909291908035906020019064010000000081111561019557600080fd5b8201836020820111156101a757600080fd5b803590602001918460018302840111640100000000831117156101c957600080fd5b9091929391929390505050610449565b005b61021d600480360360208110156101f157600080fd5b81019080803573ffffffffffffffffffffffffffffffffffffffff1690602001909291905050506106da565b005b6102616004803603602081101561023557600080fd5b81019080803573ffffffffffffffffffffffffffffffffffffffff169060200190929190505050610798565b005b600160009054906101000a900473ffffffffffffffffffffffffffffffffffffffff1681565b6102916103eb565b610303576040517f08c379a00000000000000000000000000000000000000000000000000000000081526004018080602001828103825260208152602001807f4f776e61626c653a2063616c6c6572206973206e6f7420746865206f776e657281525060200191505060405180910390fd5b600073ffffffffffffffffffffffffffffffffffffffff166000809054906101000a900473ffffffffffffffffffffffffffffffffffffffff1673ffffffffffffffffffffffffffffffffffffffff167f8be0079c531659141344cd1fd0a4f28419497f9722a3daafe3b4186f6b6457e060405160405180910390a360008060006101000a81548173ffffffffffffffffffffffffffffffffffffffff021916908373ffffffffffffffffffffffffffffffffffffffff160217905550565b60008060009054906101000a900473ffffffffffffffffffffffffffffffffffffffff16905090565b60008060009054906101000a900473ffffffffffffffffffffffffffffffffffffffff1673ffffffffffffffffffffffffffffffffffffffff1661042d61081e565b73ffffffffffffffffffffffffffffffffffffffff1614905090565b6000610476600160009054906101000a900473ffffffffffffffffffffffffffffffffffffffff16610826565b90508073ffffffffffffffffffffffffffffffffffffffff1663319775c4306040518263ffffffff1660e01b8152600401808273ffffffffffffffffffffffffffffffffffffffff1673ffffffffffffffffffffffffffffffffffffffff168152602001915050600060405180830381600087803b1580156104f757600080fd5b505af115801561050b573d6000803e3d6000fd5b505050508073ffffffffffffffffffffffffffffffffffffffff166303386ba38585856040518463ffffffff1660e01b8152600401808473ffffffffffffffffffffffffffffffffffffffff1673ffffffffffffffffffffffffffffffffffffffff168152602001806020018281038252848482818152602001925080828437600081840152601f19601f820116905080830192505050945050505050600060405180830381600087803b1580156105c257600080fd5b505af11580156105d6573d6000803e3d6000fd5b505050508073ffffffffffffffffffffffffffffffffffffffff1663d29d44ee826040518263ffffffff1660e01b8152600401808273ffffffffffffffffffffffffffffffffffffffff1673ffffffffffffffffffffffffffffffffffffffff168152602001915050600060405180830381600087803b15801561065957600080fd5b505af115801561066d573d6000803e3d6000fd5b505050507f1637a585e48b00de3c1d6e86f59e82f74ce36f787b2b0d46d7a7bf364fea3d0e81604051808273ffffffffffffffffffffffffffffffffffffffff1673ffffffffffffffffffffffffffffffffffffffff16815260200191505060405180910390a150505050565b6106e26103eb565b610754576040517f08c379a00000000000000000000000000000000000000000000000000000000081526004018080602001828103825260208152602001807f4f776e61626c653a2063616c6c6572206973206e6f7420746865206f776e657281525060200191505060405180910390fd5b80600160006101000a81548173ffffffffffffffffffffffffffffffffffffffff021916908373ffffffffffffffffffffffffffffffffffffffff16021790555050565b6107a06103eb565b610812576040517f08c379a00000000000000000000000000000000000000000000000000000000081526004018080602001828103825260208152602001807f4f776e61626c653a2063616c6c6572206973206e6f7420746865206f776e657281525060200191505060405180910390fd5b61081b8161092e565b50565b600033905090565b60006040517f3d602d80600a3d3981f3363d3d373d3d3d363d7300000000000000000000000081528260601b60148201527f5af43d82803e903d91602b57fd5bf3000000000000000000000000000000000060288201526037816000f0915050600073ffffffffffffffffffffffffffffffffffffffff168173ffffffffffffffffffffffffffffffffffffffff161415610929576040517f08c379a00000000000000000000000000000000000000000000000000000000081526004018080602001828103825260168152602001807f455243313136373a20637265617465206661696c65640000000000000000000081525060200191505060405180910390fd5b919050565b600073ffffffffffffffffffffffffffffffffffffffff168173ffffffffffffffffffffffffffffffffffffffff1614156109b4576040517f08c379a0000000000000000000000000000000000000000000000000000000008152600401808060200182810382526026815260200180610a736026913960400191505060405180910390fd5b8073ffffffffffffffffffffffffffffffffffffffff166000809054906101000a900473ffffffffffffffffffffffffffffffffffffffff1673ffffffffffffffffffffffffffffffffffffffff167f8be0079c531659141344cd1fd0a4f28419497f9722a3daafe3b4186f6b6457e060405160405180910390a3806000806101000a81548173ffffffffffffffffffffffffffffffffffffffff021916908373ffffffffffffffffffffffffffffffffffffffff1602179055505056fe4f776e61626c653a206e6577206f776e657220697320746865207a65726f2061646472657373a265627a7a723158209b765f59306a7da66c090a3a9518954b441c486efa2a6e131603cc0d9415b2ad64736f6c634300050d0032",
  "source": "// SPDX-License-Identifier: MIT\npragma solidity ^0.5.13;\n\nimport \"openzeppelin-solidity/contracts/ownership/Ownable.sol\";\n\nimport \"./InitializableProxy.sol\";\n\n/**\n * @title A factory for deploying EIP-1167 clones of upgradable Proxy contracts.\n */\ncontract ProxyCloneFactory is Ownable {\n  // The address of the Proxy implementation to clone.\n  address public proxyImplementationAddress;\n  event ProxyCloneCreated(address proxyClone);\n\n  /**\n   * @notice Sets the address of the Proxy implementation to clone.\n   * @param _proxyImplementationAddress The address of the Proxy implementation to clone.\n   */\n  function setImplementationAddress(address _proxyImplementationAddress) external onlyOwner {\n    proxyImplementationAddress = _proxyImplementationAddress;\n  }\n\n  // TODO: Upgrade solc version and import from open-zeppelin instead.\n  /**\n   * @notice Creates an EIP-1167 style clone of the specified `_proxyImplementationAddress`.\n   * @param _proxyImplementationAddress The address of the Proxy implementation to clone.\n   * @return The address of the clone.\n   * @dev Copied from open-zeppelin.\n   */\n  function clone(address _proxyImplementationAddress) internal returns (address instance) {\n    // solhint-disable-next-line no-inline-assembly\n    assembly {\n      let ptr := mload(0x40)\n      mstore(ptr, 0x3d602d80600a3d3981f3363d3d373d3d3d363d73000000000000000000000000)\n      mstore(add(ptr, 0x14), shl(0x60, _proxyImplementationAddress))\n      mstore(add(ptr, 0x28), 0x5af43d82803e903d91602b57fd5bf30000000000000000000000000000000000)\n      instance := create(0, ptr, 0x37)\n    }\n    require(instance != address(0), \"ERC1167: create failed\");\n  }\n\n  /**\n   * @notice Creates an EIP-1167 style clone of a Proxy contract, points the Proxy to an\n   *         implementation and initializes it.\n   * @param implementation The address to point the Proxy to.\n   * @param initCallData The function to call on the implementation and the corresponding args.\n   */\n  function deploy(address implementation, bytes calldata initCallData) external {\n    // Cast to prevent compiler from complaining about the output of clone() not being payable.\n    InitializableProxy proxyClone = InitializableProxy(\n      address(uint160(clone(proxyImplementationAddress)))\n    );\n    proxyClone._initialize(address(this));\n    proxyClone._setAndInitializeImplementation(implementation, initCallData);\n    // TODO(asa): In the current version of Komenci we transfer proxy ownership to the user.\n    // Need to decide which to do.\n    proxyClone._transferOwnership(address(proxyClone));\n    emit ProxyCloneCreated(address(proxyClone));\n  }\n}\n",
  "sourcePath": "/home/bowd/Workspace/job/celo/celo-monorepo/packages/protocol/contracts/common/ProxyCloneFactory.sol",
  "compiler": {
    "name": "solc",
    "version": "0.5.13+commit.5b0b510c.Emscripten.clang"
  },
  "schemaVersion": "3.4.0",
  "updatedAt": "2021-05-10T09:20:20.933Z",
  "networkType": "ethereum",
  "devdoc": {
    "methods": {
      "deploy(address,bytes)": {
        "params": {
          "implementation": "The address to point the Proxy to.",
          "initCallData": "The function to call on the implementation and the corresponding args."
        }
      },
      "isOwner()": {
        "details": "Returns true if the caller is the current owner."
      },
      "owner()": {
        "details": "Returns the address of the current owner."
      },
      "renounceOwnership()": {
        "details": "Leaves the contract without owner. It will not be possible to call `onlyOwner` functions anymore. Can only be called by the current owner.     * NOTE: Renouncing ownership will leave the contract without an owner, thereby removing any functionality that is only available to the owner."
      },
      "setImplementationAddress(address)": {
        "params": {
          "_proxyImplementationAddress": "The address of the Proxy implementation to clone."
        }
      },
      "transferOwnership(address)": {
        "details": "Transfers ownership of the contract to a new account (`newOwner`). Can only be called by the current owner."
      }
    },
    "title": "A factory for deploying EIP-1167 clones of upgradable Proxy contracts."
  },
  "userdoc": {
    "methods": {
      "deploy(address,bytes)": {
        "notice": "Creates an EIP-1167 style clone of a Proxy contract, points the Proxy to an        implementation and initializes it."
      },
      "setImplementationAddress(address)": {
        "notice": "Sets the address of the Proxy implementation to clone."
      }
    }
  }
}